S0160000564C435F325F636F6C6F725F69642E73726563EE
S113000019C028C027C026C025C024C023C022C0D0
S113001021C020C01FC01FC01DC01CC01BC01AC0EF
S113002019C018C017C016C015C014C013C012C020
S113003011C010C011241FBECFEFD2E0DEBFCDBF70
S113004021E0A0E0B1E001C01D92A430B207E1F7C5
S11300504BD0B4C0D5CF1F920F920FB60F9211247C
S11300602F933F934F935F938F939F9380910001BE
S11300709091010186309105CCF425E030E0A9018E
S1130080481B590BCA012091020130910301A901B7
S113009002C0559547958A95E2F7CA018170829509
S11300A0880F880F807C805E8BB902C080E28BB998
S11300B080910001909101010196813191052CF408
S11300C0909301018093000104C0109201011092E9
S11300D000019F918F915F914F913F912F910F90CC
S11300E00FBE0F901F90189582E084B917B890E660
S11300F09AB996E890937A00109280009CE09093CD
S1130100810080936F0080E892E09093890080934F
S11301108800789415B8CCE7D0E00F2EF0E6DF2EF7
S1130120F02DEAE7F0E0A9E7B0E00F2EF1E6EF2EBC
S1130130F02D40E250E00F2EF6E2AF2EB12CF02D60
S113014063E270E025E230E0D882808180648083BD
S1130150808184FFFDCF1C91E8828081806480834C
S1130160808184FFFDCFCC90812F90E0895C910940
S1130170C79728F43093030120930201E5CF173386
S113018028F45093030140930201DECF8C2D90E0BC
S1130190895C9109C79728F4709303016093020165
S11301A0D3CF86E38C1528F0B0920301A09202010C
S11301B0CBCF5093030140930201C6CFF894FFCFF5
S9030000FC
